:100000000C942A000C943C000C943C000C943C0092
:100010000C943C000C943C000C943C000C943C0070
:100020000C943C000C943C000C943C000C943C0060
:100030000C943C000C943C000C943C000C943C0050
:100040000C946F030C943C000C943C000C943C000A
:100050000C943C0011241FBECFE5D8E0DEBFCDBF1D
:1000600010E0A0E6B0E001C01D92A436B107E1F7B0
:100070000E94B9030C94C2030C940000DF93CF9349
:1000800000D000D00F92CDB7DEB789836A834B834F
:100090008981282F30E03D832C836C817D81613004
:1000A0007105D1F18C819D818230910534F42C81D0
:1000B0003D812115310571F094C06C817D816230E4
:1000C000710509F44BC08C819D818330910509F441
:1000D00067C087C0AAE3B0E0EAE3F0E08081482F80
:1000E0008A81282F30E081E090E002C0880F991FBC
:1000F0002A95E2F7809548238B81282F30E08A816A
:10010000882F90E0B90102C0660F771F8A95E2F749
:10011000CB01842B8C9365C0A7E3B0E0E7E3F0E06C
:100120008081482F8A81282F30E081E090E002C052
:10013000880F991F2A95E2F7809548238B81282FF5
:1001400030E08A81882F90E0B90102C0660F771FE6
:100150008A95E2F7CB01842B8C9343C0A4E3B0E0F3
:10016000E4E3F0E08081482F8A81282F30E081E0AD
:1001700090E002C0880F991F2A95E2F780954823E6
:100180008B81282F30E08A81882F90E0B90102C04E
:10019000660F771F8A95E2F7CB01842B8C9321C0E1
:1001A000A1E3B0E0E1E3F0E08081482F8A81282FCD
:1001B00030E081E090E002C0880F991F2A95E2F7B5
:1001C000809548238B81282F30E08A81882F90E00A
:1001D000B90102C0660F771F8A95E2F7CB01842B25
:1001E0008C930F900F900F900F900F90CF91DF9105
:1001F0000895DF93CF9300D000D00F92CDB7DEB734
:1002000089836A834B838981282F30E03D832C8347
:100210006C817D8161307105D1F18C819D8182304D
:10022000910534F42C813D812115310571F094C084
:100230006C817D816230710509F44BC08C819D8198
:100240008330910509F467C087C0ABE3B0E0EBE30E
:10025000F0E08081482F8A81282F30E081E090E013
:1002600002C0880F991F2A95E2F7809548238B8159
:10027000282F30E08A81882F90E0B90102C0660FF4
:10028000771F8A95E2F7CB01842B8C9365C0A8E396
:10029000B0E0E8E3F0E08081482F8A81282F30E049
:1002A00081E090E002C0880F991F2A95E2F78095BF
:1002B00048238B81282F30E08A81882F90E0B90174
:1002C00002C0660F771F8A95E2F7CB01842B8C93CF
:1002D00043C0A5E3B0E0E5E3F0E08081482F8A81E8
:1002E000282F30E081E090E002C0880F991F2A9506
:1002F000E2F7809548238B81282F30E08A81882F70
:1003000090E0B90102C0660F771F8A95E2F7CB0132
:10031000842B8C9321C0A2E3B0E0E2E3F0E0808183
:10032000482F8A81282F30E081E090E002C0880FBA
:10033000991F2A95E2F7809548238B81282F30E07A
:100340008A81882F90E0B90102C0660F771F8A95D5
:10035000E2F7CB01842B8C930F900F900F900F90AE
:100360000F90CF91DF910895DF93CF9300D000D00D
:100370000F92CDB7DEB78A836B838A81282F30E056
:100380003D832C834C815D814130510541F18C814D
:100390009D818230910534F42C813D8121153105F8
:1003A00061F052C04C815D814230510551F18C8128
:1003B0009D8183309105B9F147C0E9E3F0E0808188
:1003C000282F30E08B81882F90E0A90102C055953D
:1003D00047958A95E2F7CA018170898335C0E6E3C3
:1003E000F0E08081282F30E08B81882F90E0A901F8
:1003F00002C0559547958A95E2F7CA0181708983B5
:1004000023C0E3E3F0E08081282F30E08B81882F48
:1004100090E0A90102C0559547958A95E2F7CA0177
:100420008170898311C0E0E3F0E08081282F30E003
:100430008B81882F90E0A90102C0559547958A9538
:10044000E2F7CA018170898389810F900F900F9024
:100450000F900F90CF91DF910895DF93CF9300D04D
:1004600000D0CDB7DEB789836A838981282F30E039
:100470003C832B838B819C8181309105D1F02B8132
:100480003C81223031052CF48B819C81009761F0F6
:100490001EC02B813C812230310581F08B819C81F3
:1004A0008330910581F013C0EAE3F0E08A81808314
:1004B0000EC0E7E3F0E08A81808309C0E4E3F0E066
:1004C0008A81808304C0E1E3F0E08A8180830F9019
:1004D0000F900F900F90CF91DF910895DF93CF93FE
:1004E00000D000D0CDB7DEB789836A838981282FF9
:1004F00030E03C832B838B819C8181309105D1F04E
:100500002B813C81223031052CF48B819C8100971A
:1005100061F01EC02B813C812230310581F08B813E
:100520009C818330910581F013C0EBE3F0E08A8178
:1005300080830EC0E8E3F0E08A81808309C0E5E3B0
:10054000F0E08A81808304C0E2E3F0E08A81808366
:100550000F900F900F900F90CF91DF910895DF9340
:10056000CF93CDB7DEB7A7E2B0E0E7E2F0E080815D
:1005700080688C93A7E2B0E0E7E2F0E080818064DD
:100580008C93A7E2B0E0E7E2F0E080818F7D8C936E
:10059000A6E2B0E0E6E2F0E08081887F8C93A6E2FC
:1005A000B0E0E6E2F0E0808181608C93A6E2B0E00A
:1005B000E6E2F0E080818F7D8C93A6E2B0E0E6E297
:1005C000F0E08081877F8C93A6E2B0E0E6E2F0E085
:1005D000808180688C93CF91DF910895DF93CF93D2
:1005E00000D000D00F92CDB7DEB78A837C836B83B7
:1005F0001982A7E2B0E0E7E2F0E08081807E8C9390
:10060000A7E2B0E0E7E2F0E090818A81892B8C9349
:10061000A6E2B0E0E6E2F0E0808180648C93E6E25E
:10062000F0E08081A6E2B0E0E6E2F0E080818F7E3B
:100630008C9381E090E00F900F900F900F900F90AF
:10064000CF91DF910895DF93CF93CDB7DEB7279792
:100650000FB6F894DEBF0FBECDBF89837B836A835C
:100660005D834C838981883058F58A819B8100970E
:1006700039F18C819D81009719F18A819B8190933A
:100680006100809360008C819D81909363008093D2
:100690006200A7E2B0E0E7E2F0E08081807E8C9328
:1006A000A7E2B0E0E7E2F0E090818981892B8C93AA
:1006B000A6E2B0E0E6E2F0E0808180648C9304C0C2
:1006C00080E090E09F838E838E819F8127960FB676
:1006D000F894DEBF0FBECDBFCF91DF9108951F927A
:1006E0000F920FB60F9211242F933F934F935F9366
:1006F0006F937F938F939F93AF93BF93EF93FF93EA
:10070000DF93CF93CDB7DEB7A0916000B0916100C9
:10071000E4E2F0E08081882F90E011969C938E9324
:10072000E0916200F09163000995CF91DF91FF9114
:10073000EF91BF91AF919F918F917F916F915F9159
:100740004F913F912F910F900FBE0F901F901895D2
:10075000DF93CF93CDB7DEB781E060E041E00E9448
:100760003E0081E060E041E00E94F900CF91DF911E
:100770000895DF93CF93CDB7DEB780E090E0CF91BF
:08078000DF910895F894FFCF0A
:00000001FF
