:100000000C942A000C943C000C943C000C943C0092
:100010000C943C000C943C000C943C000C943C0070
:100020000C943C000C943C000C947F010C94340123
:100030000C943C000C943C000C943C000C943C0050
:100040000C943C000C943C000C943C000C943C0040
:100050000C943C0011241FBECFE5D8E0DEBFCDBF1D
:1000600010E0A0E6B0E001C01D92AA36B107E1F7AA
:100070000E9468040C9484040C940000DF93CF93D6
:10008000CDB7DEB7A3E5B0E0E3E5F0E080818064C2
:100090008C93A3E5B0E0E3E5F0E08081877F8C936B
:1000A000A9E5B0E0E9E5F0E0808182608C93A3E50A
:1000B000B0E0E3E5F0E080818F778C93CF91DF9122
:1000C0000895DF93CF9300D000D00F92CDB7DEB765
:1000D0009A8389837C836B838B819C810097E9F071
:1000E00089819A8190936900809368008B819C81BB
:1000F0009093650080936400A3E5B0E0E3E5F0E051
:100100008081887F8C93A3E5B0E0E3E5F0E0808117
:1001100082608C9381E08D8301C01D828D810F9060
:100120000F900F900F900F90CF91DF910895DF9374
:10013000CF93CDB7DEB727970FB6F894DEBF0FBECB
:10014000CDBF9A8389837C836B835E834D838B8150
:100150009C81009709F189819A819093690080932D
:1001600068008B819C819093670080936600ECE52A
:10017000F0E08D818083A3E5B0E0E3E5F0E08081ED
:10018000887F8C93A3E5B0E0E3E5F0E080818260B6
:100190008C9381E08F8301C01F828F8127960FB6D9
:1001A000F894DEBF0FBECDBFCF91DF910895DF93EE
:1001B000CF9300D0CDB7DEB79A838983E2E5F0E034
:1001C000898180830F900F90CF91DF910895DF9305
:1001D000CF9300D0CDB7DEB7898389818430B8F45E
:1001E0008981882F90E08130910571F4A3E5B0E01A
:1001F000E3E5F0E08081887F8C93A3E5B0E0E3E560
:10020000F0E0808182608C9381E08A8301C01A8251
:100210008A810F900F90CF91DF910895DF93CF9354
:1002200000D0CDB7DEB7898389818430B0F489816D
:10023000882F90E08130910569F4A3E5B0E0E3E513
:10024000F0E08081887F8C93A3E5B0E0E3E5F0E007
:1002500080818C9381E08A8301C01A828A810F9009
:100260000F90CF91DF9108951F920F920FB60F92CA
:1002700011242F933F934F935F936F937F938F93AB
:100280009F93AF93BF93EF93FF93DF93CF93CDB73C
:10029000DEB78091600090916100019690936100BB
:1002A000809360002091600030916100809168002F
:1002B000909169002817390779F480916400909132
:1002C0006500009749F0E0916400F09165000995A0
:1002D0001092610010926000CF91DF91FF91EF9139
:1002E000BF91AF919F918F917F916F915F914F914E
:1002F0003F912F910F900FBE0F901F9018951F9256
:100300000F920FB60F9211242F933F934F935F9349
:100310006F937F938F939F93AF93BF93EF93FF93CD
:10032000DF93CF93CDB7DEB78091620090916300E9
:100330000196909363008093620020916200309157
:10034000630080916800909169002817390779F45B
:100350008091660090916700009749F0E0916600F7
:10036000F091670009951092630010926200CF919E
:10037000DF91FF91EF91BF91AF919F918F917F910D
:100380006F915F914F913F912F910F900FBE0F9002
:100390001F901895DF93CF93CDB7DEB7AFE5B0E0F0
:1003A000EFE5F0E0808180688C93CF91DF91089534
:1003B000DF93CF93CDB7DEB7AFE5B0E0EFE5F0E088
:1003C00080818F778C93CF91DF910895DF93CF93C6
:1003D00000D000D00F92CDB7DEB789836A834B83FC
:1003E0008981282F30E03D832C836C817D816130B1
:1003F0007105D1F18C819D818230910534F42C817D
:100400003D812115310571F094C06C817D81623090
:10041000710509F44BC08C819D818330910509F4ED
:1004200067C087C0AAE3B0E0EAE3F0E08081482F2C
:100430008A81282F30E081E090E002C0880F991F68
:100440002A95E2F7809548238B81282F30E08A8116
:10045000882F90E0B90102C0660F771F8A95E2F7F6
:10046000CB01842B8C9365C0A7E3B0E0E7E3F0E019
:100470008081482F8A81282F30E081E090E002C0FF
:10048000880F991F2A95E2F7809548238B81282FA2
:1004900030E08A81882F90E0B90102C0660F771F93
:1004A0008A95E2F7CB01842B8C9343C0A4E3B0E0A0
:1004B000E4E3F0E08081482F8A81282F30E081E05A
:1004C00090E002C0880F991F2A95E2F78095482393
:1004D0008B81282F30E08A81882F90E0B90102C0FB
:1004E000660F771F8A95E2F7CB01842B8C9321C08E
:1004F000A1E3B0E0E1E3F0E08081482F8A81282F7A
:1005000030E081E090E002C0880F991F2A95E2F761
:10051000809548238B81282F30E08A81882F90E0B6
:10052000B90102C0660F771F8A95E2F7CB01842BD1
:100530008C930F900F900F900F900F90CF91DF91B1
:100540000895DF93CF9300D000D00F92CDB7DEB7E0
:1005500089836A834B838981282F30E03D832C83F4
:100560006C817D8161307105D1F18C819D818230FA
:10057000910534F42C813D812115310571F094C031
:100580006C817D816230710509F44BC08C819D8145
:100590008330910509F467C087C0ABE3B0E0EBE3BB
:1005A000F0E08081482F8A81282F30E081E090E0C0
:1005B00002C0880F991F2A95E2F7809548238B8106
:1005C000282F30E08A81882F90E0B90102C0660FA1
:1005D000771F8A95E2F7CB01842B8C9365C0A8E343
:1005E000B0E0E8E3F0E08081482F8A81282F30E0F6
:1005F00081E090E002C0880F991F2A95E2F780956C
:1006000048238B81282F30E08A81882F90E0B90120
:1006100002C0660F771F8A95E2F7CB01842B8C937B
:1006200043C0A5E3B0E0E5E3F0E08081482F8A8194
:10063000282F30E081E090E002C0880F991F2A95B2
:10064000E2F7809548238B81282F30E08A81882F1C
:1006500090E0B90102C0660F771F8A95E2F7CB01DF
:10066000842B8C9321C0A2E3B0E0E2E3F0E0808130
:10067000482F8A81282F30E081E090E002C0880F67
:10068000991F2A95E2F7809548238B81282F30E027
:100690008A81882F90E0B90102C0660F771F8A9582
:1006A000E2F7CB01842B8C930F900F900F900F905B
:1006B0000F90CF91DF910895DF93CF9300D000D0BA
:1006C0000F92CDB7DEB78A836B838A81282F30E003
:1006D0003D832C834C815D814130510541F18C81FA
:1006E0009D818230910534F42C813D8121153105A5
:1006F00061F052C04C815D814230510551F18C81D5
:100700009D8183309105B9F147C0E9E3F0E0808134
:10071000282F30E08B81882F90E0A90102C05595E9
:1007200047958A95E2F7CA018170898335C0E6E36F
:10073000F0E08081282F30E08B81882F90E0A901A4
:1007400002C0559547958A95E2F7CA018170898361
:1007500023C0E3E3F0E08081282F30E08B81882FF5
:1007600090E0A90102C0559547958A95E2F7CA0124
:100770008170898311C0E0E3F0E08081282F30E0B0
:100780008B81882F90E0A90102C0559547958A95E5
:10079000E2F7CA018170898389810F900F900F90D1
:1007A0000F900F90CF91DF910895DF93CF9300D0FA
:1007B00000D0CDB7DEB789836A838981282F30E0E6
:1007C0003C832B838B819C8181309105D1F02B81DF
:1007D0003C81223031052CF48B819C81009761F0A3
:1007E0001EC02B813C812230310581F08B819C81A0
:1007F0008330910581F013C0EAE3F0E08A818083C1
:100800000EC0E7E3F0E08A81808309C0E4E3F0E012
:100810008A81808304C0E1E3F0E08A8180830F90C5
:100820000F900F900F90CF91DF910895DF93CF93AA
:1008300000D000D0CDB7DEB789836A838981282FA5
:1008400030E03C832B838B819C8181309105D1F0FA
:100850002B813C81223031052CF48B819C810097C7
:1008600061F01EC02B813C812230310581F08B81EB
:100870009C818330910581F013C0EBE3F0E08A8125
:1008800080830EC0E8E3F0E08A81808309C0E5E35D
:10089000F0E08A81808304C0E2E3F0E08A81808313
:1008A0000F900F900F900F90CF91DF910895DF93ED
:1008B000CF93CDB7DEB780E060E041E00E94A102B7
:1008C00080E061E041E00E94A102CF91DF910895B4
:1008D000DF93CF93CDB7DEB780E060E041E00E94C8
:1008E000E60180E061E041E00E94E6010E943E00F6
:1008F00027E534E080ED97E0B9014AEF50E00E942F
:0C09000097000E94CA01FFCFF894FFCFBF
:00000001FF
